{
  "contractName": "ERC1155MixedFungible",
  "abi": [
    {
      "constant": true,
      "inputs": [
        {
          "name": "_interfaceId",
          "type": "bytes4"
        }
      ],
      "name": "supportsInterface",
      "outputs": [
        {
          "name": "",
          "type": "bool"
        }
      ],
      "payable": false,
      "stateMutability": "view",
      "type": "function"
    },
    {
      "constant": false,
      "inputs": [
        {
          "name": "_operator",
          "type": "address"
        },
        {
          "name": "_approved",
          "type": "bool"
        }
      ],
      "name": "setApprovalForAll",
      "outputs": [],
      "payable": false,
      "stateMutability": "nonpayable",
      "type": "function"
    },
    {
      "constant": true,
      "inputs": [
        {
          "name": "_owner",
          "type": "address"
        },
        {
          "name": "_operator",
          "type": "address"
        }
      ],
      "name": "isApprovedForAll",
      "outputs": [
        {
          "name": "",
          "type": "bool"
        }
      ],
      "payable": false,
      "stateMutability": "view",
      "type": "function"
    },
    {
      "anonymous": false,
      "inputs": [
        {
          "indexed": true,
          "name": "_operator",
          "type": "address"
        },
        {
          "indexed": true,
          "name": "_from",
          "type": "address"
        },
        {
          "indexed": true,
          "name": "_to",
          "type": "address"
        },
        {
          "indexed": false,
          "name": "_id",
          "type": "uint256"
        },
        {
          "indexed": false,
          "name": "_value",
          "type": "uint256"
        }
      ],
      "name": "TransferSingle",
      "type": "event"
    },
    {
      "anonymous": false,
      "inputs": [
        {
          "indexed": true,
          "name": "_operator",
          "type": "address"
        },
        {
          "indexed": true,
          "name": "_from",
          "type": "address"
        },
        {
          "indexed": true,
          "name": "_to",
          "type": "address"
        },
        {
          "indexed": false,
          "name": "_ids",
          "type": "uint256[]"
        },
        {
          "indexed": false,
          "name": "_values",
          "type": "uint256[]"
        }
      ],
      "name": "TransferBatch",
      "type": "event"
    },
    {
      "anonymous": false,
      "inputs": [
        {
          "indexed": true,
          "name": "_owner",
          "type": "address"
        },
        {
          "indexed": true,
          "name": "_operator",
          "type": "address"
        },
        {
          "indexed": false,
          "name": "_approved",
          "type": "bool"
        }
      ],
      "name": "ApprovalForAll",
      "type": "event"
    },
    {
      "anonymous": false,
      "inputs": [
        {
          "indexed": false,
          "name": "_value",
          "type": "string"
        },
        {
          "indexed": true,
          "name": "_id",
          "type": "uint256"
        }
      ],
      "name": "URI",
      "type": "event"
    },
    {
      "constant": true,
      "inputs": [
        {
          "name": "_id",
          "type": "uint256"
        }
      ],
      "name": "isNonFungible",
      "outputs": [
        {
          "name": "",
          "type": "bool"
        }
      ],
      "payable": false,
      "stateMutability": "pure",
      "type": "function"
    },
    {
      "constant": true,
      "inputs": [
        {
          "name": "_id",
          "type": "uint256"
        }
      ],
      "name": "isFungible",
      "outputs": [
        {
          "name": "",
          "type": "bool"
        }
      ],
      "payable": false,
      "stateMutability": "pure",
      "type": "function"
    },
    {
      "constant": true,
      "inputs": [
        {
          "name": "_id",
          "type": "uint256"
        }
      ],
      "name": "getNonFungibleIndex",
      "outputs": [
        {
          "name": "",
          "type": "uint256"
        }
      ],
      "payable": false,
      "stateMutability": "pure",
      "type": "function"
    },
    {
      "constant": true,
      "inputs": [
        {
          "name": "_id",
          "type": "uint256"
        }
      ],
      "name": "getNonFungibleBaseType",
      "outputs": [
        {
          "name": "",
          "type": "uint256"
        }
      ],
      "payable": false,
      "stateMutability": "pure",
      "type": "function"
    },
    {
      "constant": true,
      "inputs": [
        {
          "name": "_id",
          "type": "uint256"
        }
      ],
      "name": "isNonFungibleBaseType",
      "outputs": [
        {
          "name": "",
          "type": "bool"
        }
      ],
      "payable": false,
      "stateMutability": "pure",
      "type": "function"
    },
    {
      "constant": true,
      "inputs": [
        {
          "name": "_id",
          "type": "uint256"
        }
      ],
      "name": "isNonFungibleItem",
      "outputs": [
        {
          "name": "",
          "type": "bool"
        }
      ],
      "payable": false,
      "stateMutability": "pure",
      "type": "function"
    },
    {
      "constant": true,
      "inputs": [
        {
          "name": "_id",
          "type": "uint256"
        }
      ],
      "name": "ownerOf",
      "outputs": [
        {
          "name": "",
          "type": "address"
        }
      ],
      "payable": false,
      "stateMutability": "view",
      "type": "function"
    },
    {
      "constant": false,
      "inputs": [
        {
          "name": "_from",
          "type": "address"
        },
        {
          "name": "_to",
          "type": "address"
        },
        {
          "name": "_id",
          "type": "uint256"
        },
        {
          "name": "_value",
          "type": "uint256"
        },
        {
          "name": "_data",
          "type": "bytes"
        }
      ],
      "name": "safeTransferFrom",
      "outputs": [],
      "payable": false,
      "stateMutability": "nonpayable",
      "type": "function"
    },
    {
      "constant": false,
      "inputs": [
        {
          "name": "_from",
          "type": "address"
        },
        {
          "name": "_to",
          "type": "address"
        },
        {
          "name": "_ids",
          "type": "uint256[]"
        },
        {
          "name": "_values",
          "type": "uint256[]"
        },
        {
          "name": "_data",
          "type": "bytes"
        }
      ],
      "name": "safeBatchTransferFrom",
      "outputs": [],
      "payable": false,
      "stateMutability": "nonpayable",
      "type": "function"
    },
    {
      "constant": true,
      "inputs": [
        {
          "name": "_owner",
          "type": "address"
        },
        {
          "name": "_id",
          "type": "uint256"
        }
      ],
      "name": "balanceOf",
      "outputs": [
        {
          "name": "",
          "type": "uint256"
        }
      ],
      "payable": false,
      "stateMutability": "view",
      "type": "function"
    },
    {
      "constant": true,
      "inputs": [
        {
          "name": "_owners",
          "type": "address[]"
        },
        {
          "name": "_ids",
          "type": "uint256[]"
        }
      ],
      "name": "balanceOfBatch",
      "outputs": [
        {
          "name": "",
          "type": "uint256[]"
        }
      ],
      "payable": false,
      "stateMutability": "view",
      "type": "function"
    }
  ],
  "bytecode": "0x608060405234801561001057600080fd5b506121d3806100206000396000f3fe608060405234801561001057600080fd5b50600436106100e95760003560e01c80637269a3271161008c578063adebf6f211610066578063adebf6f214610609578063e44591f01461064f578063e985e9c514610695578063f242432a14610711576100e9565b80637269a327146105315780639cca1c6414610577578063a22cb465146105b9576100e9565b80634e1273f4116100c85780634e1273f4146103185780635e81b9581461043b5780636352211e146104815780636f969c2d146104ef576100e9565b8062fdd58e146100ee57806301ffc9a7146101505780632eb2c2d6146101b5575b600080fd5b61013a6004803603604081101561010457600080fd5b81019080803573ffffffffffffffffffffffffffffffffffffffff169060200190929190803590602001909291905050506107de565b6040518082815260200191505060405180910390f35b61019b6004803603602081101561016657600080fd5b8101908080357bffffffffffffffffffffffffffffffffffffffffffffffffffffffff191690602001909291905050506108c1565b604051808215151515815260200191505060405180910390f35b610316600480360360a08110156101cb57600080fd5b81019080803573ffffffffffffffffffffffffffffffffffffffff169060200190929190803573ffffffffffffffffffffffffffffffffffffffff1690602001909291908035906020019064010000000081111561022857600080fd5b82018360208201111561023a57600080fd5b8035906020019184602083028401116401000000008311171561025c57600080fd5b90919293919293908035906020019064010000000081111561027d57600080fd5b82018360208201111561028f57600080fd5b803590602001918460208302840111640100000000831117156102b157600080fd5b9091929391929390803590602001906401000000008111156102d257600080fd5b8201836020820111156102e457600080fd5b8035906020019184600183028401116401000000008311171561030657600080fd5b9091929391929390505050610972565b005b6103e46004803603604081101561032e57600080fd5b810190808035906020019064010000000081111561034b57600080fd5b82018360208201111561035d57600080fd5b8035906020019184602083028401116401000000008311171561037f57600080fd5b9091929391929390803590602001906401000000008111156103a057600080fd5b8201836020820111156103b257600080fd5b803590602001918460208302840111640100000000831117156103d457600080fd5b9091929391929390505050611019565b6040518080602001828103825283818151815260200191508051906020019060200280838360005b8381101561042757808201518184015260208101905061040c565b505050509050019250505060405180910390f35b6104676004803603602081101561045157600080fd5b81019080803590602001909291905050506111fc565b604051808215151515815260200191505060405180910390f35b6104ad6004803603602081101561049757600080fd5b810190808035906020019092919050505061126b565b604051808273ffffffffffffffffffffffffffffffffffffffff1673ffffffffffffffffffffffffffffffffffffffff16815260200191505060405180910390f35b61051b6004803603602081101561050557600080fd5b81019080803590602001909291905050506112a8565b6040518082815260200191505060405180910390f35b61055d6004803603602081101561054757600080fd5b81019080803590602001909291905050506112ea565b604051808215151515815260200191505060405180910390f35b6105a36004803603602081101561058d57600080fd5b8101908080359060200190929190505050611358565b6040518082815260200191505060405180910390f35b610607600480360360408110156105cf57600080fd5b81019080803573ffffffffffffffffffffffffffffffffffffffff169060200190929190803515159060200190929190505050611396565b005b6106356004803603602081101561061f57600080fd5b8101908080359060200190929190505050611497565b604051808215151515815260200191505060405180910390f35b61067b6004803603602081101561066557600080fd5b81019080803590602001909291905050506114c5565b604051808215151515815260200191505060405180910390f35b6106f7600480360360408110156106ab57600080fd5b81019080803573ffffffffffffffffffffffffffffffffffffffff169060200190929190803573ffffffffffffffffffffffffffffffffffffffff1690602001909291905050506114f3565b604051808215151515815260200191505060405180910390f35b6107dc600480360360a081101561072757600080fd5b81019080803573ffffffffffffffffffffffffffffffffffffffff169060200190929190803573ffffffffffffffffffffffffffffffffffffffff16906020019092919080359060200190929190803590602001909291908035906020019064010000000081111561079857600080fd5b8201836020820111156107aa57600080fd5b803590602001918460018302840111640100000000831117156107cc57600080fd5b9091929391929390505050611587565b005b60006107e9826111fc565b15610868578273ffffffffffffffffffffffffffffffffffffffff166002600084815260200190815260200160002060009054906101000a900473ffffffffffffffffffffffffffffffffffffffff1673ffffffffffffffffffffffffffffffffffffffff161461085b57600061085e565b60015b60ff1690506108bb565b60008083815260200190815260200160002060008473ffffffffffffffffffffffffffffffffffffffff1673ffffffffffffffffffffffffffffffffffffffff1681526020019081526020016000205490505b92915050565b60006301ffc9a760e01b7bffffffffffffffffffffffffffffffffffffffffffffffffffffffff1916827bffffffffffffffffffffffffffffffffffffffffffffffffffffffff1916148061095a575063d9b67a2660e01b7bffffffffffffffffffffffffffffffffffffffffffffffffffffffff1916827bffffffffffffffffffffffffffffffffffffffffffffffffffffffff1916145b15610968576001905061096d565b600090505b919050565b600073ffffffffffffffffffffffffffffffffffffffff168773ffffffffffffffffffffffffffffffffffffffff161415610a15576040517f08c379a000000000000000000000000000000000000000000000000000000000815260040180806020018281038252601b8152602001807f63616e6e6f742073656e6420746f207a65726f2061646472657373000000000081525060200191505060405180910390fd5b838390508686905014610a90576040517f08c379a00000000000000000000000000000000000000000000000000000000081526004018080602001828103825260178152602001807f4172726179206c656e677468206d757374206d6174636800000000000000000081525060200191505060405180910390fd5b3373ffffffffffffffffffffffffffffffffffffffff168873ffffffffffffffffffffffffffffffffffffffff161480610b57575060011515600160008a73ffffffffffffffffffffffffffffffffffffffff1673ffffffffffffffffffffffffffffffffffffffff16815260200190815260200160002060003373ffffffffffffffffffffffffffffffffffffffff1673ffffffffffffffffffffffffffffffffffffffff16815260200190815260200160002060009054906101000a900460ff161515145b610bac576040517f08c379a000000000000000000000000000000000000000000000000000000000815260040180806020018281038252602f815260200180612102602f913960400191505060405180910390fd5b60008090505b86869050811015610e33576000878783818110610bcb57fe5b9050602002013590506000868684818110610be257fe5b905060200201359050610bf4826114c5565b15610cbb578a73ffffffffffffffffffffffffffffffffffffffff166002600084815260200190815260200160002060009054906101000a900473ffffffffffffffffffffffffffffffffffffffff1673ffffffffffffffffffffffffffffffffffffffff1614610c6457600080fd5b896002600084815260200190815260200160002060006101000a81548173ffffffffffffffffffffffffffffffffffffffff021916908373ffffffffffffffffffffffffffffffffffffffff160217905550610e26565b610d1d8160008085815260200190815260200160002060008e73ffffffffffffffffffffffffffffffffffffffff1673ffffffffffffffffffffffffffffffffffffffff16815260200190815260200160002054611a8490919063ffffffff16565b60008084815260200190815260200160002060008d73ffffffffffffffffffffffffffffffffffffffff1673ffffffffffffffffffffffffffffffffffffffff16815260200190815260200160002081905550610dd260008084815260200190815260200160002060008c73ffffffffffffffffffffffffffffffffffffffff1673ffffffffffffffffffffffffffffffffffffffff1681526020019081526020016000205482611ace90919063ffffffff16565b60008084815260200190815260200160002060008c73ffffffffffffffffffffffffffffffffffffffff1673ffffffffffffffffffffffffffffffffffffffff168152602001908152602001600020819055505b5050806001019050610bb2565b508673ffffffffffffffffffffffffffffffffffffffff168873ffffffffffffffffffffffffffffffffffffffff163373ffffffffffffffffffffffffffffffffffffffff167f4a39dc06d4c0dbc64b70af90fd698a233a518aa5d07e595d983b8c0526c8f7fb898989896040518080602001806020018381038352878782818152602001925060200280828437600081840152601f19601f8201169050808301925050508381038252858582818152602001925060200280828437600081840152601f19601f820116905080830192505050965050505050505060405180910390a4610f358773ffffffffffffffffffffffffffffffffffffffff16611b56565b1561100f5761100e338989898980806020026020016040519081016040528093929190818152602001838360200280828437600081840152601f19601f82011690508083019250505050505050888880806020026020016040519081016040528093929190818152602001838360200280828437600081840152601f19601f8201169050808301925050505050505087878080601f016020809104026020016040519081016040528093929190818152602001838380828437600081840152601f19601f82011690508083019250505050505050611ba1565b5b5050505050505050565b606082829050858590501461102d57600080fd5b6060858590506040519080825280602002602001820160405280156110615781602001602082028038833980820191505090505b50905060008090505b868690508110156111ef57600085858381811061108357fe5b905060200201359050611095816111fc565b15611152578787838181106110a657fe5b9050602002013573ffffffffffffffffffffffffffffffffffffffff1673ffffffffffffffffffffffffffffffffffffffff166002600083815260200190815260200160002060009054906101000a900473ffffffffffffffffffffffffffffffffffffffff1673ffffffffffffffffffffffffffffffffffffffff161461112f576000611132565b60015b60ff1683838151811061114157fe5b6020026020010181815250506111e3565b600080828152602001908152602001600020600089898581811061117257fe5b9050602002013573ffffffffffffffffffffffffffffffffffffffff1673ffffffffffffffffffffffffffffffffffffffff1673ffffffffffffffffffffffffffffffffffffffff168152602001908152602001600020548383815181106111d657fe5b6020026020010181815250505b5080600101905061106a565b5080915050949350505050565b60007f8000000000000000000000000000000000000000000000000000000000000000808316148015611264575060007fffffffffffffffffffffffffffffffffffffffffffffffffffffffffffffffff6fffffffffffffffffffffffffffffffff16831614155b9050919050565b60006002600083815260200190815260200160002060009054906101000a900473ffffffffffffffffffffffffffffffffffffffff169050919050565b600060807fffffffffffffffffffffffffffffffffffffffffffffffffffffffffffffffff6fffffffffffffffffffffffffffffffff16901b82169050919050565b60007f8000000000000000000000000000000000000000000000000000000000000000808316148015611351575060007fffffffffffffffffffffffffffffffffffffffffffffffffffffffffffffffff6fffffffffffffffffffffffffffffffff168316145b9050919050565b60007fffffffffffffffffffffffffffffffffffffffffffffffffffffffffffffffff6fffffffffffffffffffffffffffffffff1682169050919050565b80600160003373ffffffffffffffffffffffffffffffffffffffff1673ffffffffffffffffffffffffffffffffffffffff16815260200190815260200160002060008473ffffffffffffffffffffffffffffffffffffffff1673ffffffffffffffffffffffffffffffffffffffff16815260200190815260200160002060006101000a81548160ff0219169083151502179055508173ffffffffffffffffffffffffffffffffffffffff163373ffffffffffffffffffffffffffffffffffffffff167f17307eab39ab6107e8899845ad3d59bd9653f200f220920489ca2b5937696c3183604051808215151515815260200191505060405180910390a35050565b6000807f80000000000000000000000000000000000000000000000000000000000000008316149050919050565b60007f8000000000000000000000000000000000000000000000000000000000000000808316149050919050565b6000600160008473ffffffffffffffffffffffffffffffffffffffff1673ffffffffffffffffffffffffffffffffffffffff16815260200190815260200160002060008373ffffffffffffffffffffffffffffffffffffffff1673ffffffffffffffffffffffffffffffffffffffff16815260200190815260200160002060009054906101000a900460ff16905092915050565b600073ffffffffffffffffffffffffffffffffffffffff168573ffffffffffffffffffffffffffffffffffffffff16141561162a576040517f08c379a000000000000000000000000000000000000000000000000000000000815260040180806020018281038252601b8152602001807f63616e6e6f742073656e6420746f207a65726f2061646472657373000000000081525060200191505060405180910390fd5b3373ffffffffffffffffffffffffffffffffffffffff168673ffffffffffffffffffffffffffffffffffffffff1614806116f1575060011515600160008873ffffffffffffffffffffffffffffffffffffffff1673ffffffffffffffffffffffffffffffffffffffff16815260200190815260200160002060003373ffffffffffffffffffffffffffffffffffffffff1673ffffffffffffffffffffffffffffffffffffffff16815260200190815260200160002060009054906101000a900460ff161515145b611746576040517f08c379a000000000000000000000000000000000000000000000000000000000815260040180806020018281038252602f815260200180612102602f913960400191505060405180910390fd5b61174f846114c5565b15611816578573ffffffffffffffffffffffffffffffffffffffff166002600086815260200190815260200160002060009054906101000a900473ffffffffffffffffffffffffffffffffffffffff1673ffffffffffffffffffffffffffffffffffffffff16146117bf57600080fd5b846002600086815260200190815260200160002060006101000a81548173ffffffffffffffffffffffffffffffffffffffff021916908373ffffffffffffffffffffffffffffffffffffffff160217905550611981565b6118788360008087815260200190815260200160002060008973ffffffffffffffffffffffffffffffffffffffff1673ffffffffffffffffffffffffffffffffffffffff16815260200190815260200160002054611a8490919063ffffffff16565b60008086815260200190815260200160002060008873ffffffffffffffffffffffffffffffffffffffff1673ffffffffffffffffffffffffffffffffffffffff1681526020019081526020016000208190555061192d8360008087815260200190815260200160002060008873ffffffffffffffffffffffffffffffffffffffff1673ffffffffffffffffffffffffffffffffffffffff16815260200190815260200160002054611ace90919063ffffffff16565b60008086815260200190815260200160002060008773ffffffffffffffffffffffffffffffffffffffff1673ffffffffffffffffffffffffffffffffffffffff168152602001908152602001600020819055505b8473ffffffffffffffffffffffffffffffffffffffff168673ffffffffffffffffffffffffffffffffffffffff163373ffffffffffffffffffffffffffffffffffffffff167fc3d58168c5ae7397731d063d5bbf3d657854427343f4c083240f7aacaa2d0f628787604051808381526020018281526020019250505060405180910390a4611a248573ffffffffffffffffffffffffffffffffffffffff16611b56565b15611a7c57611a7b338787878787878080601f016020809104026020016040519081016040528093929190818152602001838380828437600081840152601f19601f82011690508083019250505050505050611e32565b5b505050505050565b6000611ac683836040518060400160405280601e81526020017f536166654d6174683a207375627472616374696f6e206f766572666c6f770000815250612041565b905092915050565b600080828401905083811015611b4c576040517f08c379a000000000000000000000000000000000000000000000000000000000815260040180806020018281038252601b8152602001807f536166654d6174683a206164646974696f6e206f766572666c6f77000000000081525060200191505060405180910390fd5b8091505092915050565b60008060007fc5d2460186f7233c927e7db2dcc703c0e500b653ca82273b7bfad8045d85a47060001b9050833f9150808214158015611b9857506000801b8214155b92505050919050565b63bc197c8160e01b7bffffffffffffffffffffffffffffffffffffffffffffffffffffffff19168473ffffffffffffffffffffffffffffffffffffffff1663bc197c8188888787876040518663ffffffff1660e01b8152600401808673ffffffffffffffffffffffffffffffffffffffff1673ffffffffffffffffffffffffffffffffffffffff1681526020018573ffffffffffffffffffffffffffffffffffffffff1673ffffffffffffffffffffffffffffffffffffffff168152602001806020018060200180602001848103845287818151815260200191508051906020019060200280838360005b83811015611ca7578082015181840152602081019050611c8c565b50505050905001848103835286818151815260200191508051906020019060200280838360005b83811015611ce9578082015181840152602081019050611cce565b50505050905001848103825285818151815260200191508051906020019080838360005b83811015611d28578082015181840152602081019050611d0d565b50505050905090810190601f168015611d555780820380516001836020036101000a031916815260200191505b5098505050505050505050602060405180830381600087803b158015611d7a57600080fd5b505af1158015611d8e573d6000803e3d6000fd5b505050506040513d6020811015611da457600080fd5b81019080805190602001909291905050507bffffffffffffffffffffffffffffffffffffffffffffffffffffffff191614611e2a576040517f08c379a000000000000000000000000000000000000000000000000000000000815260040180806020018281038252603e815260200180612131603e913960400191505060405180910390fd5b505050505050565b63f23a6e6160e01b7bffffffffffffffffffffffffffffffffffffffffffffffffffffffff19168473ffffffffffffffffffffffffffffffffffffffff1663f23a6e6188888787876040518663ffffffff1660e01b8152600401808673ffffffffffffffffffffffffffffffffffffffff1673ffffffffffffffffffffffffffffffffffffffff1681526020018573ffffffffffffffffffffffffffffffffffffffff1673ffffffffffffffffffffffffffffffffffffffff16815260200184815260200183815260200180602001828103825283818151815260200191508051906020019080838360005b83811015611f39578082015181840152602081019050611f1e565b50505050905090810190601f168015611f665780820380516001836020036101000a031916815260200191505b509650505050505050602060405180830381600087803b158015611f8957600080fd5b505af1158015611f9d573d6000803e3d6000fd5b505050506040513d6020811015611fb357600080fd5b81019080805190602001909291905050507bffffffffffffffffffffffffffffffffffffffffffffffffffffffff191614612039576040517f08c379a000000000000000000000000000000000000000000000000000000000815260040180806020018281038252603981526020018061216f6039913960400191505060405180910390fd5b505050505050565b60008383111582906120ee576040517f08c379a00000000000000000000000000000000000000000000000000000000081526004018080602001828103825283818151815260200191508051906020019080838360005b838110156120b3578082015181840152602081019050612098565b50505050905090810190601f1680156120e05780820380516001836020036101000a031916815260200191505b509250505060405180910390fd5b506000838503905080915050939250505056fe4e656564206f70657261746f7220617070726f76616c20666f7220337264207061727479207472616e73666572732e636f6e74726163742072657475726e656420616e20756e6b6e6f776e2076616c75652066726f6d206f6e4552433131353542617463685265636569766564636f6e74726163742072657475726e656420616e20756e6b6e6f776e2076616c75652066726f6d206f6e455243313135355265636569766564a165627a7a7230582041bd6888f2d4b71eb49f7c080697b02ef000aff58e685e39f3ec6f39b289105b0029",
  "source": "pragma solidity ^0.5.0;\r\n\r\nimport \"./ERC1155.sol\";\r\n\r\n/**\r\n    @dev Extension to ERC1155 for Mixed Fungible and Non-Fungible Items support\r\n    The main benefit is sharing of common type information, just like you do when\r\n    creating a fungible id.\r\n*/\r\ncontract ERC1155MixedFungible is ERC1155 {\r\n\r\n    // Use a split bit implementation.\r\n    // Store the type in the upper 128 bits..\r\n    uint256 constant TYPE_MASK = uint256(uint128(~0)) << 128;\r\n\r\n    // ..and the non-fungible index in the lower 128\r\n    uint256 constant NF_INDEX_MASK = uint128(~0);\r\n\r\n    // The top bit is a flag to tell if this is a NFI.\r\n    uint256 constant TYPE_NF_BIT = 1 << 255;\r\n\r\n    mapping (uint256 => address) nfOwners;\r\n\r\n    // Only to make code clearer. Should not be functions\r\n    function isNonFungible(uint256 _id) public pure returns(bool) {\r\n        return _id & TYPE_NF_BIT == TYPE_NF_BIT;\r\n    }\r\n    function isFungible(uint256 _id) public pure returns(bool) {\r\n        return _id & TYPE_NF_BIT == 0;\r\n    }\r\n    function getNonFungibleIndex(uint256 _id) public pure returns(uint256) {\r\n        return _id & NF_INDEX_MASK;\r\n    }\r\n    function getNonFungibleBaseType(uint256 _id) public pure returns(uint256) {\r\n        return _id & TYPE_MASK;\r\n    }\r\n    function isNonFungibleBaseType(uint256 _id) public pure returns(bool) {\r\n        // A base type has the NF bit but does not have an index.\r\n        return (_id & TYPE_NF_BIT == TYPE_NF_BIT) && (_id & NF_INDEX_MASK == 0);\r\n    }\r\n    function isNonFungibleItem(uint256 _id) public pure returns(bool) {\r\n        // A base type has the NF bit but does has an index.\r\n        return (_id & TYPE_NF_BIT == TYPE_NF_BIT) && (_id & NF_INDEX_MASK != 0);\r\n    }\r\n    function ownerOf(uint256 _id) public view returns (address) {\r\n        return nfOwners[_id];\r\n    }\r\n\r\n    // override\r\n    function safeTransferFrom(address _from, address _to, uint256 _id, uint256 _value, bytes calldata _data) external {\r\n\r\n        require(_to != address(0x0), \"cannot send to zero address\");\r\n        require(_from == msg.sender || operatorApproval[_from][msg.sender] == true, \"Need operator approval for 3rd party transfers.\");\r\n\r\n        if (isNonFungible(_id)) {\r\n            require(nfOwners[_id] == _from);\r\n            nfOwners[_id] = _to;\r\n            // You could keep balance of NF type in base type id like so:\r\n            // uint256 baseType = getNonFungibleBaseType(_id);\r\n            // balances[baseType][_from] = balances[baseType][_from].sub(_value);\r\n            // balances[baseType][_to]   = balances[baseType][_to].add(_value);\r\n        } else {\r\n            balances[_id][_from] = balances[_id][_from].sub(_value);\r\n            balances[_id][_to]   = balances[_id][_to].add(_value);\r\n        }\r\n\r\n        emit TransferSingle(msg.sender, _from, _to, _id, _value);\r\n\r\n        if (_to.isContract()) {\r\n            _doSafeTransferAcceptanceCheck(msg.sender, _from, _to, _id, _value, _data);\r\n        }\r\n    }\r\n\r\n    // override\r\n    function safeBatchTransferFrom(address _from, address _to, uint256[] calldata _ids, uint256[] calldata _values, bytes calldata _data) external {\r\n\r\n        require(_to != address(0x0), \"cannot send to zero address\");\r\n        require(_ids.length == _values.length, \"Array length must match\");\r\n\r\n        // Only supporting a global operator approval allows us to do only 1 check and not to touch storage to handle allowances.\r\n        require(_from == msg.sender || operatorApproval[_from][msg.sender] == true, \"Need operator approval for 3rd party transfers.\");\r\n\r\n        for (uint256 i = 0; i < _ids.length; ++i) {\r\n            // Cache value to local variable to reduce read costs.\r\n            uint256 id = _ids[i];\r\n            uint256 value = _values[i];\r\n\r\n            if (isNonFungible(id)) {\r\n                require(nfOwners[id] == _from);\r\n                nfOwners[id] = _to;\r\n            } else {\r\n                balances[id][_from] = balances[id][_from].sub(value);\r\n                balances[id][_to]   = value.add(balances[id][_to]);\r\n            }\r\n        }\r\n\r\n        emit TransferBatch(msg.sender, _from, _to, _ids, _values);\r\n\r\n        if (_to.isContract()) {\r\n            _doSafeBatchTransferAcceptanceCheck(msg.sender, _from, _to, _ids, _values, _data);\r\n        }\r\n    }\r\n\r\n    function balanceOf(address _owner, uint256 _id) external view returns (uint256) {\r\n        if (isNonFungibleItem(_id))\r\n            return nfOwners[_id] == _owner ? 1 : 0;\r\n        return balances[_id][_owner];\r\n    }\r\n\r\n    function balanceOfBatch(address[] calldata _owners, uint256[] calldata _ids) external view returns (uint256[] memory) {\r\n\r\n        require(_owners.length == _ids.length);\r\n\r\n        uint256[] memory balances_ = new uint256[](_owners.length);\r\n\r\n        for (uint256 i = 0; i < _owners.length; ++i) {\r\n            uint256 id = _ids[i];\r\n            if (isNonFungibleItem(id)) {\r\n                balances_[i] = nfOwners[id] == _owners[i] ? 1 : 0;\r\n            } else {\r\n            \tbalances_[i] = balances[id][_owners[i]];\r\n            }\r\n        }\r\n\r\n        return balances_;\r\n    }\r\n}\r\n",
  "sourcePath": "C:\\Users\\SergiiBomko\\Documents\\GitHub\\festook\\contracts\\ERC1155MixedFungible.sol",
  "compiler": {
    "name": "solc",
    "version": "0.5.8+commit.23d335f2.Emscripten.clang"
  },
  "schemaVersion": "3.0.11",
  "updatedAt": "2020-02-11T09:38:15.156Z",
  "devdoc": {
    "details": "Extension to ERC1155 for Mixed Fungible and Non-Fungible Items support\r The main benefit is sharing of common type information, just like you do when\r creating a fungible id.\r",
    "methods": {
      "isApprovedForAll(address,address)": {
        "params": {
          "_operator": "Address of authorized operator\r",
          "_owner": "The owner of the Tokens\r"
        },
        "return": "True if the operator is approved, false if not\r"
      },
      "setApprovalForAll(address,bool)": {
        "details": "MUST emit the ApprovalForAll event on success.\r",
        "params": {
          "_approved": "True if the operator is approved, false to revoke approval\r",
          "_operator": "Address to add to the set of authorized operators\r"
        }
      }
    }
  },
  "userdoc": {
    "methods": {
      "isApprovedForAll(address,address)": {
        "notice": "Queries the approval status of an operator for a given owner.\r"
      },
      "setApprovalForAll(address,bool)": {
        "notice": "Enable or disable approval for a third party (\"operator\") to manage all of the caller's tokens.\r"
      }
    }
  }
}