{
  "contractName": "Festook",
  "abi": [
    {
      "constant": true,
      "inputs": [
        {
          "name": "_owner",
          "type": "address"
        },
        {
          "name": "_id",
          "type": "uint256"
        }
      ],
      "name": "balanceOf",
      "outputs": [
        {
          "name": "",
          "type": "uint256"
        }
      ],
      "payable": false,
      "stateMutability": "view",
      "type": "function"
    },
    {
      "constant": true,
      "inputs": [
        {
          "name": "_interfaceId",
          "type": "bytes4"
        }
      ],
      "name": "supportsInterface",
      "outputs": [
        {
          "name": "",
          "type": "bool"
        }
      ],
      "payable": false,
      "stateMutability": "view",
      "type": "function"
    },
    {
      "constant": true,
      "inputs": [],
      "name": "name",
      "outputs": [
        {
          "name": "",
          "type": "string"
        }
      ],
      "payable": false,
      "stateMutability": "view",
      "type": "function"
    },
    {
      "constant": true,
      "inputs": [
        {
          "name": "",
          "type": "uint256"
        }
      ],
      "name": "maxIndex",
      "outputs": [
        {
          "name": "",
          "type": "uint256"
        }
      ],
      "payable": false,
      "stateMutability": "view",
      "type": "function"
    },
    {
      "constant": false,
      "inputs": [
        {
          "name": "_from",
          "type": "address"
        },
        {
          "name": "_to",
          "type": "address"
        },
        {
          "name": "_ids",
          "type": "uint256[]"
        },
        {
          "name": "_values",
          "type": "uint256[]"
        },
        {
          "name": "_data",
          "type": "bytes"
        }
      ],
      "name": "safeBatchTransferFrom",
      "outputs": [],
      "payable": false,
      "stateMutability": "nonpayable",
      "type": "function"
    },
    {
      "constant": true,
      "inputs": [
        {
          "name": "_owners",
          "type": "address[]"
        },
        {
          "name": "_ids",
          "type": "uint256[]"
        }
      ],
      "name": "balanceOfBatch",
      "outputs": [
        {
          "name": "",
          "type": "uint256[]"
        }
      ],
      "payable": false,
      "stateMutability": "view",
      "type": "function"
    },
    {
      "constant": true,
      "inputs": [
        {
          "name": "_id",
          "type": "uint256"
        }
      ],
      "name": "isNonFungibleItem",
      "outputs": [
        {
          "name": "",
          "type": "bool"
        }
      ],
      "payable": false,
      "stateMutability": "pure",
      "type": "function"
    },
    {
      "constant": true,
      "inputs": [
        {
          "name": "_id",
          "type": "uint256"
        }
      ],
      "name": "ownerOf",
      "outputs": [
        {
          "name": "",
          "type": "address"
        }
      ],
      "payable": false,
      "stateMutability": "view",
      "type": "function"
    },
    {
      "constant": true,
      "inputs": [
        {
          "name": "_id",
          "type": "uint256"
        }
      ],
      "name": "getNonFungibleBaseType",
      "outputs": [
        {
          "name": "",
          "type": "uint256"
        }
      ],
      "payable": false,
      "stateMutability": "pure",
      "type": "function"
    },
    {
      "constant": false,
      "inputs": [],
      "name": "renounceOwnership",
      "outputs": [],
      "payable": false,
      "stateMutability": "nonpayable",
      "type": "function"
    },
    {
      "constant": true,
      "inputs": [
        {
          "name": "_id",
          "type": "uint256"
        }
      ],
      "name": "isNonFungibleBaseType",
      "outputs": [
        {
          "name": "",
          "type": "bool"
        }
      ],
      "payable": false,
      "stateMutability": "pure",
      "type": "function"
    },
    {
      "constant": true,
      "inputs": [],
      "name": "owner",
      "outputs": [
        {
          "name": "",
          "type": "address"
        }
      ],
      "payable": false,
      "stateMutability": "view",
      "type": "function"
    },
    {
      "constant": true,
      "inputs": [],
      "name": "isOwner",
      "outputs": [
        {
          "name": "",
          "type": "bool"
        }
      ],
      "payable": false,
      "stateMutability": "view",
      "type": "function"
    },
    {
      "constant": true,
      "inputs": [],
      "name": "symbol",
      "outputs": [
        {
          "name": "",
          "type": "string"
        }
      ],
      "payable": false,
      "stateMutability": "view",
      "type": "function"
    },
    {
      "constant": true,
      "inputs": [
        {
          "name": "_id",
          "type": "uint256"
        }
      ],
      "name": "getNonFungibleIndex",
      "outputs": [
        {
          "name": "",
          "type": "uint256"
        }
      ],
      "payable": false,
      "stateMutability": "pure",
      "type": "function"
    },
    {
      "constant": false,
      "inputs": [
        {
          "name": "_operator",
          "type": "address"
        },
        {
          "name": "_approved",
          "type": "bool"
        }
      ],
      "name": "setApprovalForAll",
      "outputs": [],
      "payable": false,
      "stateMutability": "nonpayable",
      "type": "function"
    },
    {
      "constant": true,
      "inputs": [
        {
          "name": "_id",
          "type": "uint256"
        }
      ],
      "name": "isFungible",
      "outputs": [
        {
          "name": "",
          "type": "bool"
        }
      ],
      "payable": false,
      "stateMutability": "pure",
      "type": "function"
    },
    {
      "constant": true,
      "inputs": [],
      "name": "contractUri",
      "outputs": [
        {
          "name": "",
          "type": "string"
        }
      ],
      "payable": false,
      "stateMutability": "view",
      "type": "function"
    },
    {
      "constant": false,
      "inputs": [
        {
          "name": "_uri",
          "type": "string"
        },
        {
          "name": "_isNF",
          "type": "bool"
        }
      ],
      "name": "create",
      "outputs": [
        {
          "name": "_type",
          "type": "uint256"
        }
      ],
      "payable": false,
      "stateMutability": "nonpayable",
      "type": "function"
    },
    {
      "constant": true,
      "inputs": [
        {
          "name": "",
          "type": "uint256"
        }
      ],
      "name": "creators",
      "outputs": [
        {
          "name": "",
          "type": "address"
        }
      ],
      "payable": false,
      "stateMutability": "view",
      "type": "function"
    },
    {
      "constant": true,
      "inputs": [
        {
          "name": "_id",
          "type": "uint256"
        }
      ],
      "name": "isNonFungible",
      "outputs": [
        {
          "name": "",
          "type": "bool"
        }
      ],
      "payable": false,
      "stateMutability": "pure",
      "type": "function"
    },
    {
      "constant": true,
      "inputs": [
        {
          "name": "_owner",
          "type": "address"
        },
        {
          "name": "_operator",
          "type": "address"
        }
      ],
      "name": "isApprovedForAll",
      "outputs": [
        {
          "name": "",
          "type": "bool"
        }
      ],
      "payable": false,
      "stateMutability": "view",
      "type": "function"
    },
    {
      "constant": false,
      "inputs": [
        {
          "name": "_from",
          "type": "address"
        },
        {
          "name": "_to",
          "type": "address"
        },
        {
          "name": "_id",
          "type": "uint256"
        },
        {
          "name": "_value",
          "type": "uint256"
        },
        {
          "name": "_data",
          "type": "bytes"
        }
      ],
      "name": "safeTransferFrom",
      "outputs": [],
      "payable": false,
      "stateMutability": "nonpayable",
      "type": "function"
    },
    {
      "constant": false,
      "inputs": [
        {
          "name": "newOwner",
          "type": "address"
        }
      ],
      "name": "transferOwnership",
      "outputs": [],
      "payable": false,
      "stateMutability": "nonpayable",
      "type": "function"
    },
    {
      "inputs": [
        {
          "name": "_name",
          "type": "string"
        },
        {
          "name": "_symbol",
          "type": "string"
        }
      ],
      "payable": false,
      "stateMutability": "nonpayable",
      "type": "constructor"
    },
    {
      "anonymous": false,
      "inputs": [
        {
          "indexed": true,
          "name": "previousOwner",
          "type": "address"
        },
        {
          "indexed": true,
          "name": "newOwner",
          "type": "address"
        }
      ],
      "name": "OwnershipTransferred",
      "type": "event"
    },
    {
      "anonymous": false,
      "inputs": [
        {
          "indexed": true,
          "name": "_operator",
          "type": "address"
        },
        {
          "indexed": true,
          "name": "_from",
          "type": "address"
        },
        {
          "indexed": true,
          "name": "_to",
          "type": "address"
        },
        {
          "indexed": false,
          "name": "_id",
          "type": "uint256"
        },
        {
          "indexed": false,
          "name": "_value",
          "type": "uint256"
        }
      ],
      "name": "TransferSingle",
      "type": "event"
    },
    {
      "anonymous": false,
      "inputs": [
        {
          "indexed": true,
          "name": "_operator",
          "type": "address"
        },
        {
          "indexed": true,
          "name": "_from",
          "type": "address"
        },
        {
          "indexed": true,
          "name": "_to",
          "type": "address"
        },
        {
          "indexed": false,
          "name": "_ids",
          "type": "uint256[]"
        },
        {
          "indexed": false,
          "name": "_values",
          "type": "uint256[]"
        }
      ],
      "name": "TransferBatch",
      "type": "event"
    },
    {
      "anonymous": false,
      "inputs": [
        {
          "indexed": true,
          "name": "_owner",
          "type": "address"
        },
        {
          "indexed": true,
          "name": "_operator",
          "type": "address"
        },
        {
          "indexed": false,
          "name": "_approved",
          "type": "bool"
        }
      ],
      "name": "ApprovalForAll",
      "type": "event"
    },
    {
      "anonymous": false,
      "inputs": [
        {
          "indexed": false,
          "name": "_value",
          "type": "string"
        },
        {
          "indexed": true,
          "name": "_id",
          "type": "uint256"
        }
      ],
      "name": "URI",
      "type": "event"
    },
    {
      "constant": false,
      "inputs": [
        {
          "name": "_uri",
          "type": "string"
        },
        {
          "name": "_to",
          "type": "address[]"
        }
      ],
      "name": "mintNonFungible",
      "outputs": [],
      "payable": false,
      "stateMutability": "nonpayable",
      "type": "function"
    },
    {
      "constant": false,
      "inputs": [
        {
          "name": "_type",
          "type": "uint256"
        },
        {
          "name": "_to",
          "type": "address[]"
        }
      ],
      "name": "mintNonFungible",
      "outputs": [],
      "payable": false,
      "stateMutability": "nonpayable",
      "type": "function"
    },
    {
      "constant": false,
      "inputs": [
        {
          "name": "_id",
          "type": "uint256"
        },
        {
          "name": "_to",
          "type": "address[]"
        },
        {
          "name": "_quantities",
          "type": "uint256[]"
        }
      ],
      "name": "mintFungible",
      "outputs": [],
      "payable": false,
      "stateMutability": "nonpayable",
      "type": "function"
    },
    {
      "constant": false,
      "inputs": [
        {
          "name": "_uri",
          "type": "string"
        },
        {
          "name": "_to",
          "type": "address[]"
        },
        {
          "name": "_quantities",
          "type": "uint256[]"
        }
      ],
      "name": "mintFungible",
      "outputs": [],
      "payable": false,
      "stateMutability": "nonpayable",
      "type": "function"
    },
    {
      "constant": true,
      "inputs": [
        {
          "name": "_id",
          "type": "uint256"
        }
      ],
      "name": "uri",
      "outputs": [
        {
          "name": "",
          "type": "string"
        }
      ],
      "payable": false,
      "stateMutability": "view",
      "type": "function"
    },
    {
      "constant": true,
      "inputs": [],
      "name": "contractURI",
      "outputs": [
        {
          "name": "",
          "type": "string"
        }
      ],
      "payable": false,
      "stateMutability": "view",
      "type": "function"
    },
    {
      "constant": false,
      "inputs": [
        {
          "name": "_newBaseMetadataURI",
          "type": "string"
        }
      ],
      "name": "setBaseMetadataURI",
      "outputs": [],
      "payable": false,
      "stateMutability": "nonpayable",
      "type": "function"
    },
    {
      "constant": false,
      "inputs": [
        {
          "name": "_newContractURI",
          "type": "string"
        }
      ],
      "name": "setContractURI",
      "outputs": [],
      "payable": false,
      "stateMutability": "nonpayable",
      "type": "function"
    }
  ],
  "bytecode": "0x60806040523480156200001157600080fd5b506040516200447f3803806200447f833981018060405260408110156200003757600080fd5b8101908080516401000000008111156200005057600080fd5b828101905060208101848111156200006757600080fd5b81518560018202830111640100000000821117156200008557600080fd5b50509291906020018051640100000000811115620000a257600080fd5b82810190506020810184811115620000b957600080fd5b8151856001820283011164010000000082111715620000d757600080fd5b50509291905050506000620000f1620001ca60201b60201c565b905080600760006101000a81548173ffffffffffffffffffffffffffffffffffffffff021916908373ffffffffffffffffffffffffffffffffffffffff1602179055508073ffffffffffffffffffffffffffffffffffffffff16600073ffffffffffffffffffffffffffffffffffffffff167f8be0079c531659141344cd1fd0a4f28419497f9722a3daafe3b4186f6b6457e060405160405180910390a3508160089080519060200190620001a8929190620001d2565b508060099080519060200190620001c1929190620001d2565b50505062000281565b600033905090565b828054600181600116156101000203166002900490600052602060002090601f016020900481019282601f106200021557805160ff191683800117855562000246565b8280016001018555821562000246579182015b828111156200024557825182559160200191906001019062000228565b5b50905062000255919062000259565b5090565b6200027e91905b808211156200027a57600081600090555060010162000260565b5090565b90565b6141ee80620002916000396000f3fe608060405234801561001057600080fd5b50600436106101ef5760003560e01c80638f32d59b1161010f578063cd53d08e116100a2578063f242432a11610071578063f242432a14611065578063f2fde38b14611132578063f8bf697214611176578063f941908814611299576101ef565b8063cd53d08e14610eb2578063e44591f014610f20578063e8a3d48514610f66578063e985e9c514610fe9576101ef565b8063a22cb465116100de578063a22cb46514610cbe578063adebf6f214610d0e578063c0e24d5e14610d54578063cc10e40114610dd7576101ef565b80638f32d59b14610b1c578063938e3d7b14610b3e57806395d89b4114610bf95780639cca1c6414610c7c576101ef565b80635e81b958116101875780637269a327116101565780637269a3271461087b57806378b27221146108c15780637e518ec814610a175780638da5cb5b14610ad2576101ef565b80635e81b9581461077b5780636352211e146107c15780636f969c2d1461082f578063715018a614610871576101ef565b806308d7d469116101c357806308d7d4691461040c5780630e89341c1461044e5780632eb2c2d6146104f55780634e1273f414610658576101ef565b8062fdd58e146101f457806301ffc9a714610256578063026e5bc5146102bb57806306fdde0314610389575b600080fd5b6102406004803603604081101561020a57600080fd5b81019080803573ffffffffffffffffffffffffffffffffffffffff1690602001909291908035906020019092919050505061135b565b6040518082815260200191505060405180910390f35b6102a16004803603602081101561026c57600080fd5b8101908080357bffffffffffffffffffffffffffffffffffffffffffffffffffffffff1916906020019092919050505061143e565b604051808215151515815260200191505060405180910390f35b610387600480360360408110156102d157600080fd5b81019080803590602001906401000000008111156102ee57600080fd5b82018360208201111561030057600080fd5b8035906020019184600183028401116401000000008311171561032257600080fd5b90919293919293908035906020019064010000000081111561034357600080fd5b82018360208201111561035557600080fd5b8035906020019184602083028401116401000000008311171561037757600080fd5b90919293919293905050506114ef565b005b610391611594565b6040518080602001828103825283818151815260200191508051906020019080838360005b838110156103d15780820151818401526020810190506103b6565b50505050905090810190601f1680156103fe5780820380516001836020036101000a031916815260200191505b509250505060405180910390f35b6104386004803603602081101561042257600080fd5b8101908080359060200190929190505050611632565b6040518082815260200191505060405180910390f35b61047a6004803603602081101561046457600080fd5b810190808035906020019092919050505061164a565b6040518080602001828103825283818151815260200191508051906020019080838360005b838110156104ba57808201518184015260208101905061049f565b50505050905090810190601f1680156104e75780820380516001836020036101000a031916815260200191505b509250505060405180910390f35b610656600480360360a081101561050b57600080fd5b81019080803573ffffffffffffffffffffffffffffffffffffffff169060200190929190803573ffffffffffffffffffffffffffffffffffffffff1690602001909291908035906020019064010000000081111561056857600080fd5b82018360208201111561057a57600080fd5b8035906020019184602083028401116401000000008311171561059c57600080fd5b9091929391929390803590602001906401000000008111156105bd57600080fd5b8201836020820111156105cf57600080fd5b803590602001918460208302840111640100000000831117156105f157600080fd5b90919293919293908035906020019064010000000081111561061257600080fd5b82018360208201111561062457600080fd5b8035906020019184600183028401116401000000008311171561064657600080fd5b90919293919293905050506116ff565b005b6107246004803603604081101561066e57600080fd5b810190808035906020019064010000000081111561068b57600080fd5b82018360208201111561069d57600080fd5b803590602001918460208302840111640100000000831117156106bf57600080fd5b9091929391929390803590602001906401000000008111156106e057600080fd5b8201836020820111156106f257600080fd5b8035906020019184602083028401116401000000008311171561071457600080fd5b9091929391929390505050611da6565b6040518080602001828103825283818151815260200191508051906020019060200280838360005b8381101561076757808201518184015260208101905061074c565b505050509050019250505060405180910390f35b6107a76004803603602081101561079157600080fd5b8101908080359060200190929190505050611f89565b604051808215151515815260200191505060405180910390f35b6107ed600480360360208110156107d757600080fd5b8101908080359060200190929190505050611ff8565b604051808273ffffffffffffffffffffffffffffffffffffffff1673ffffffffffffffffffffffffffffffffffffffff16815260200191505060405180910390f35b61085b6004803603602081101561084557600080fd5b8101908080359060200190929190505050612035565b6040518082815260200191505060405180910390f35b610879612077565b005b6108a76004803603602081101561089157600080fd5b81019080803590602001909291905050506121b2565b604051808215151515815260200191505060405180910390f35b610a15600480360360608110156108d757600080fd5b8101908080359060200190929190803590602001906401000000008111156108fe57600080fd5b82018360208201111561091057600080fd5b8035906020019184602083028401116401000000008311171561093257600080fd5b919080806020026020016040519081016040528093929190818152602001838360200280828437600081840152601f19601f8201169050808301925050505050505091929192908035906020019064010000000081111561099257600080fd5b8201836020820111156109a457600080fd5b803590602001918460208302840111640100000000831117156109c657600080fd5b919080806020026020016040519081016040528093929190818152602001838360200280828437600081840152601f19601f820116905080830192505050505050509192919290505050612220565b005b610ad060048036036020811015610a2d57600080fd5b8101908080359060200190640100000000811115610a4a57600080fd5b820183602082011115610a5c57600080fd5b80359060200191846001830284011164010000000083111715610a7e57600080fd5b91908080601f016020809104026020016040519081016040528093929190818152602001838380828437600081840152601f19601f82011690508083019250505050505050919291929050505061246d565b005b610ada6124f3565b604051808273ffffffffffffffffffffffffffffffffffffffff1673ffffffffffffffffffffffffffffffffffffffff16815260200191505060405180910390f35b610b2461251d565b604051808215151515815260200191505060405180910390f35b610bf760048036036020811015610b5457600080fd5b8101908080359060200190640100000000811115610b7157600080fd5b820183602082011115610b8357600080fd5b80359060200191846001830284011164010000000083111715610ba557600080fd5b91908080601f016020809104026020016040519081016040528093929190818152602001838380828437600081840152601f19601f82011690508083019250505050505050919291929050505061257c565b005b610c01612610565b6040518080602001828103825283818151815260200191508051906020019080838360005b83811015610c41578082015181840152602081019050610c26565b50505050905090810190601f168015610c6e5780820380516001836020036101000a031916815260200191505b509250505060405180910390f35b610ca860048036036020811015610c9257600080fd5b81019080803590602001909291905050506126ae565b6040518082815260200191505060405180910390f35b610d0c60048036036040811015610cd457600080fd5b81019080803573ffffffffffffffffffffffffffffffffffffffff1690602001909291908035151590602001909291905050506126ec565b005b610d3a60048036036020811015610d2457600080fd5b81019080803590602001909291905050506127ed565b604051808215151515815260200191505060405180910390f35b610d5c61281b565b6040518080602001828103825283818151815260200191508051906020019080838360005b83811015610d9c578082015181840152602081019050610d81565b50505050905090810190601f168015610dc95780820380516001836020036101000a031916815260200191505b509250505060405180910390f35b610e9c60048036036040811015610ded57600080fd5b8101908080359060200190640100000000811115610e0a57600080fd5b820183602082011115610e1c57600080fd5b80359060200191846001830284011164010000000083111715610e3e57600080fd5b91908080601f016020809104026020016040519081016040528093929190818152602001838380828437600081840152601f19601f8201169050808301925050505050505091929192908035151590602001909291905050506128b9565b6040518082815260200191505060405180910390f35b610ede60048036036020811015610ec857600080fd5b81019080803590602001909291905050506129fc565b604051808273ffffffffffffffffffffffffffffffffffffffff1673ffffffffffffffffffffffffffffffffffffffff16815260200191505060405180910390f35b610f4c60048036036020811015610f3657600080fd5b8101908080359060200190929190505050612a2f565b604051808215151515815260200191505060405180910390f35b610f6e612a5d565b6040518080602001828103825283818151815260200191508051906020019080838360005b83811015610fae578082015181840152602081019050610f93565b50505050905090810190601f168015610fdb5780820380516001836020036101000a031916815260200191505b509250505060405180910390f35b61104b60048036036040811015610fff57600080fd5b81019080803573ffffffffffffffffffffffffffffffffffffffff169060200190929190803573ffffffffffffffffffffffffffffffffffffffff169060200190929190505050612aff565b604051808215151515815260200191505060405180910390f35b611130600480360360a081101561107b57600080fd5b81019080803573ffffffffffffffffffffffffffffffffffffffff169060200190929190803573ffffffffffffffffffffffffffffffffffffffff1690602001909291908035906020019092919080359060200190929190803590602001906401000000008111156110ec57600080fd5b8201836020820111156110fe57600080fd5b8035906020019184600183028401116401000000008311171561112057600080fd5b9091929391929390505050612b93565b005b6111746004803603602081101561114857600080fd5b81019080803573ffffffffffffffffffffffffffffffffffffffff169060200190929190505050613090565b005b6112976004803603606081101561118c57600080fd5b81019080803590602001906401000000008111156111a957600080fd5b8201836020820111156111bb57600080fd5b803590602001918460018302840111640100000000831117156111dd57600080fd5b9091929391929390803590602001906401000000008111156111fe57600080fd5b82018360208201111561121057600080fd5b8035906020019184602083028401116401000000008311171561123257600080fd5b90919293919293908035906020019064010000000081111561125357600080fd5b82018360208201111561126557600080fd5b8035906020019184602083028401116401000000008311171561128757600080fd5b9091929391929390505050613116565b005b611359600480360360408110156112af57600080fd5b8101908080359060200190929190803590602001906401000000008111156112d657600080fd5b8201836020820111156112e857600080fd5b8035906020019184602083028401116401000000008311171561130a57600080fd5b919080806020026020016040519081016040528093929190818152602001838360200280828437600081840152601f19601f8201169050808301925050505050505091929192905050506131ff565b005b600061136682611f89565b156113e5578273ffffffffffffffffffffffffffffffffffffffff166002600084815260200190815260200160002060009054906101000a900473ffffffffffffffffffffffffffffffffffffffff1673ffffffffffffffffffffffffffffffffffffffff16146113d85760006113db565b60015b60ff169050611438565b60008083815260200190815260200160002060008473ffffffffffffffffffffffffffffffffffffffff1673ffffffffffffffffffffffffffffffffffffffff1681526020019081526020016000205490505b92915050565b60006301ffc9a760e01b7bffffffffffffffffffffffffffffffffffffffffffffffffffffffff1916827bffffffffffffffffffffffffffffffffffffffffffffffffffffffff191614806114d7575063d9b67a2660e01b7bffffffffffffffffffffffffffffffffffffffffffffffffffffffff1916827bffffffffffffffffffffffffffffffffffffffffffffffffffffffff1916145b156114e557600190506114ea565b600090505b919050565b600061154085858080601f016020809104026020016040519081016040528093929190818152602001838380828437600081840152601f19601f8201169050808301925050505050505060016128b9565b905061158d81848480806020026020016040519081016040528093929190818152602001838360200280828437600081840152601f19601f820116905080830192505050505050506131ff565b5050505050565b60088054600181600116156101000203166002900480601f01602080910402602001604051908101604052809291908181526020018280546001816001161561010002031660029004801561162a5780601f106115ff5761010080835404028352916020019161162a565b820191906000526020600020905b81548152906001019060200180831161160d57829003601f168201915b505050505081565b60056020528060005260406000206000915090505481565b60606116f860068054600181600116156101000203166002900480601f0160208091040260200160405190810160405280929190818152602001828054600181600116156101000203166002900480156116e55780601f106116ba576101008083540402835291602001916116e5565b820191906000526020600020905b8154815290600101906020018083116116c857829003601f168201915b50505050506116f384613435565b613562565b9050919050565b600073ffffffffffffffffffffffffffffffffffffffff168773ffffffffffffffffffffffffffffffffffffffff1614156117a2576040517f08c379a000000000000000000000000000000000000000000000000000000000815260040180806020018281038252601b8152602001807f63616e6e6f742073656e6420746f207a65726f2061646472657373000000000081525060200191505060405180910390fd5b83839050868690501461181d576040517f08c379a00000000000000000000000000000000000000000000000000000000081526004018080602001828103825260178152602001807f4172726179206c656e677468206d757374206d6174636800000000000000000081525060200191505060405180910390fd5b3373ffffffffffffffffffffffffffffffffffffffff168873ffffffffffffffffffffffffffffffffffffffff1614806118e4575060011515600160008a73ffffffffffffffffffffffffffffffffffffffff1673ffffffffffffffffffffffffffffffffffffffff16815260200190815260200160002060003373ffffffffffffffffffffffffffffffffffffffff1673ffffffffffffffffffffffffffffffffffffffff16815260200190815260200160002060009054906101000a900460ff161515145b611939576040517f08c379a000000000000000000000000000000000000000000000000000000000815260040180806020018281038252602f81526020018061411d602f913960400191505060405180910390fd5b60008090505b86869050811015611bc057600087878381811061195857fe5b905060200201359050600086868481811061196f57fe5b90506020020135905061198182612a2f565b15611a48578a73ffffffffffffffffffffffffffffffffffffffff166002600084815260200190815260200160002060009054906101000a900473ffffffffffffffffffffffffffffffffffffffff1673ffffffffffffffffffffffffffffffffffffffff16146119f157600080fd5b896002600084815260200190815260200160002060006101000a81548173ffffffffffffffffffffffffffffffffffffffff021916908373ffffffffffffffffffffffffffffffffffffffff160217905550611bb3565b611aaa8160008085815260200190815260200160002060008e73ffffffffffffffffffffffffffffffffffffffff1673ffffffffffffffffffffffffffffffffffffffff168152602001908152602001600020546135a690919063ffffffff16565b60008084815260200190815260200160002060008d73ffffffffffffffffffffffffffffffffffffffff1673ffffffffffffffffffffffffffffffffffffffff16815260200190815260200160002081905550611b5f60008084815260200190815260200160002060008c73ffffffffffffffffffffffffffffffffffffffff1673ffffffffffffffffffffffffffffffffffffffff16815260200190815260200160002054826135f090919063ffffffff16565b60008084815260200190815260200160002060008c73ffffffffffffffffffffffffffffffffffffffff1673ffffffffffffffffffffffffffffffffffffffff168152602001908152602001600020819055505b505080600101905061193f565b508673ffffffffffffffffffffffffffffffffffffffff168873ffffffffffffffffffffffffffffffffffffffff163373ffffffffffffffffffffffffffffffffffffffff167f4a39dc06d4c0dbc64b70af90fd698a233a518aa5d07e595d983b8c0526c8f7fb898989896040518080602001806020018381038352878782818152602001925060200280828437600081840152601f19601f8201169050808301925050508381038252858582818152602001925060200280828437600081840152601f19601f820116905080830192505050965050505050505060405180910390a4611cc28773ffffffffffffffffffffffffffffffffffffffff16613678565b15611d9c57611d9b338989898980806020026020016040519081016040528093929190818152602001838360200280828437600081840152601f19601f82011690508083019250505050505050888880806020026020016040519081016040528093929190818152602001838360200280828437600081840152601f19601f8201169050808301925050505050505087878080601f016020809104026020016040519081016040528093929190818152602001838380828437600081840152601f19601f820116905080830192505050505050506136c3565b5b5050505050505050565b6060828290508585905014611dba57600080fd5b606085859050604051908082528060200260200182016040528015611dee5781602001602082028038833980820191505090505b50905060008090505b86869050811015611f7c576000858583818110611e1057fe5b905060200201359050611e2281611f89565b15611edf57878783818110611e3357fe5b9050602002013573ffffffffffffffffffffffffffffffffffffffff1673ffffffffffffffffffffffffffffffffffffffff166002600083815260200190815260200160002060009054906101000a900473ffffffffffffffffffffffffffffffffffffffff1673ffffffffffffffffffffffffffffffffffffffff1614611ebc576000611ebf565b60015b60ff16838381518110611ece57fe5b602002602001018181525050611f70565b6000808281526020019081526020016000206000898985818110611eff57fe5b9050602002013573ffffffffffffffffffffffffffffffffffffffff1673ffffffffffffffffffffffffffffffffffffffff1673ffffffffffffffffffffffffffffffffffffffff16815260200190815260200160002054838381518110611f6357fe5b6020026020010181815250505b50806001019050611df7565b5080915050949350505050565b60007f8000000000000000000000000000000000000000000000000000000000000000808316148015611ff1575060007fffffffffffffffffffffffffffffffffffffffffffffffffffffffffffffffff6fffffffffffffffffffffffffffffffff16831614155b9050919050565b60006002600083815260200190815260200160002060009054906101000a900473ffffffffffffffffffffffffffffffffffffffff169050919050565b600060807fffffffffffffffffffffffffffffffffffffffffffffffffffffffffffffffff6fffffffffffffffffffffffffffffffff16901b82169050919050565b61207f61251d565b6120f1576040517f08c379a00000000000000000000000000000000000000000000000000000000081526004018080602001828103825260208152602001807f4f776e61626c653a2063616c6c6572206973206e6f7420746865206f776e657281525060200191505060405180910390fd5b600073ffffffffffffffffffffffffffffffffffffffff16600760009054906101000a900473ffffffffffffffffffffffffffffffffffffffff1673ffffffffffffffffffffffffffffffffffffffff167f8be0079c531659141344cd1fd0a4f28419497f9722a3daafe3b4186f6b6457e060405160405180910390a36000600760006101000a81548173ffffffffffffffffffffffffffffffffffffffff021916908373ffffffffffffffffffffffffffffffffffffffff160217905550565b60007f8000000000000000000000000000000000000000000000000000000000000000808316148015612219575060007fffffffffffffffffffffffffffffffffffffffffffffffffffffffffffffffff6fffffffffffffffffffffffffffffffff168316145b9050919050565b823373ffffffffffffffffffffffffffffffffffffffff166004600083815260200190815260200160002060009054906101000a900473ffffffffffffffffffffffffffffffffffffffff1673ffffffffffffffffffffffffffffffffffffffff161461228c57600080fd5b612295846127ed565b61229e57600080fd5b60008090505b83518110156124665760008482815181106122bb57fe5b6020026020010151905060008483815181106122d357fe5b6020026020010151905061233f60008089815260200190815260200160002060008473ffffffffffffffffffffffffffffffffffffffff1673ffffffffffffffffffffffffffffffffffffffff16815260200190815260200160002054826135f090919063ffffffff16565b60008089815260200190815260200160002060008473ffffffffffffffffffffffffffffffffffffffff1673ffffffffffffffffffffffffffffffffffffffff168152602001908152602001600020819055508173ffffffffffffffffffffffffffffffffffffffff16600073ffffffffffffffffffffffffffffffffffffffff163373ffffffffffffffffffffffffffffffffffffffff167fc3d58168c5ae7397731d063d5bbf3d657854427343f4c083240f7aacaa2d0f628a85604051808381526020018281526020019250505060405180910390a46124368273ffffffffffffffffffffffffffffffffffffffff16613678565b15612459576124583333848a8560405180602001604052806000815250613954565b5b50508060010190506122a4565b5050505050565b61247561251d565b6124e7576040517f08c379a00000000000000000000000000000000000000000000000000000000081526004018080602001828103825260208152602001807f4f776e61626c653a2063616c6c6572206973206e6f7420746865206f776e657281525060200191505060405180910390fd5b6124f081613b63565b50565b6000600760009054906101000a900473ffffffffffffffffffffffffffffffffffffffff16905090565b6000600760009054906101000a900473ffffffffffffffffffffffffffffffffffffffff1673ffffffffffffffffffffffffffffffffffffffff16612560613b7d565b73ffffffffffffffffffffffffffffffffffffffff1614905090565b61258461251d565b6125f6576040517f08c379a00000000000000000000000000000000000000000000000000000000081526004018080602001828103825260208152602001807f4f776e61626c653a2063616c6c6572206973206e6f7420746865206f776e657281525060200191505060405180910390fd5b80600a908051906020019061260c929190614051565b5050565b60098054600181600116156101000203166002900480601f0160208091040260200160405190810160405280929190818152602001828054600181600116156101000203166002900480156126a65780601f1061267b576101008083540402835291602001916126a6565b820191906000526020600020905b81548152906001019060200180831161268957829003601f168201915b505050505081565b60007fffffffffffffffffffffffffffffffffffffffffffffffffffffffffffffffff6fffffffffffffffffffffffffffffffff1682169050919050565b80600160003373ffffffffffffffffffffffffffffffffffffffff1673ffffffffffffffffffffffffffffffffffffffff16815260200190815260200160002060008473ffffffffffffffffffffffffffffffffffffffff1673ffffffffffffffffffffffffffffffffffffffff16815260200190815260200160002060006101000a81548160ff0219169083151502179055508173ffffffffffffffffffffffffffffffffffffffff163373ffffffffffffffffffffffffffffffffffffffff167f17307eab39ab6107e8899845ad3d59bd9653f200f220920489ca2b5937696c3183604051808215151515815260200191505060405180910390a35050565b6000807f80000000000000000000000000000000000000000000000000000000000000008316149050919050565b600a8054600181600116156101000203166002900480601f0160208091040260200160405190810160405280929190818152602001828054600181600116156101000203166002900480156128b15780601f10612886576101008083540402835291602001916128b1565b820191906000526020600020905b81548152906001019060200180831161289457829003601f168201915b505050505081565b60006080600360008154600101919050819055901b905081156128fc577f8000000000000000000000000000000000000000000000000000000000000000811790505b336004600083815260200190815260200160002060006101000a81548173ffffffffffffffffffffffffffffffffffffffff021916908373ffffffffffffffffffffffffffffffffffffffff1602179055506000835111156129f657807f6bb7ff708619ba0610cba295a58592e0451dee2622938c8755667688daf3529b846040518080602001828103825283818151815260200191508051906020019080838360005b838110156129bb5780820151818401526020810190506129a0565b50505050905090810190601f1680156129e85780820380516001836020036101000a031916815260200191505b509250505060405180910390a25b92915050565b60046020528060005260406000206000915054906101000a900473ffffffffffffffffffffffffffffffffffffffff1681565b60007f8000000000000000000000000000000000000000000000000000000000000000808316149050919050565b6060600a8054600181600116156101000203166002900480601f016020809104026020016040519081016040528092919081815260200182805460018160011615610100020316600290048015612af55780601f10612aca57610100808354040283529160200191612af5565b820191906000526020600020905b815481529060010190602001808311612ad857829003601f168201915b5050505050905090565b6000600160008473ffffffffffffffffffffffffffffffffffffffff1673ffffffffffffffffffffffffffffffffffffffff16815260200190815260200160002060008373ffffffffffffffffffffffffffffffffffffffff1673ffffffffffffffffffffffffffffffffffffffff16815260200190815260200160002060009054906101000a900460ff16905092915050565b600073ffffffffffffffffffffffffffffffffffffffff168573ffffffffffffffffffffffffffffffffffffffff161415612c36576040517f08c379a000000000000000000000000000000000000000000000000000000000815260040180806020018281038252601b8152602001807f63616e6e6f742073656e6420746f207a65726f2061646472657373000000000081525060200191505060405180910390fd5b3373ffffffffffffffffffffffffffffffffffffffff168673ffffffffffffffffffffffffffffffffffffffff161480612cfd575060011515600160008873ffffffffffffffffffffffffffffffffffffffff1673ffffffffffffffffffffffffffffffffffffffff16815260200190815260200160002060003373ffffffffffffffffffffffffffffffffffffffff1673ffffffffffffffffffffffffffffffffffffffff16815260200190815260200160002060009054906101000a900460ff161515145b612d52576040517f08c379a000000000000000000000000000000000000000000000000000000000815260040180806020018281038252602f81526020018061411d602f913960400191505060405180910390fd5b612d5b84612a2f565b15612e22578573ffffffffffffffffffffffffffffffffffffffff166002600086815260200190815260200160002060009054906101000a900473ffffffffffffffffffffffffffffffffffffffff1673ffffffffffffffffffffffffffffffffffffffff1614612dcb57600080fd5b846002600086815260200190815260200160002060006101000a81548173ffffffffffffffffffffffffffffffffffffffff021916908373ffffffffffffffffffffffffffffffffffffffff160217905550612f8d565b612e848360008087815260200190815260200160002060008973ffffffffffffffffffffffffffffffffffffffff1673ffffffffffffffffffffffffffffffffffffffff168152602001908152602001600020546135a690919063ffffffff16565b60008086815260200190815260200160002060008873ffffffffffffffffffffffffffffffffffffffff1673ffffffffffffffffffffffffffffffffffffffff16815260200190815260200160002081905550612f398360008087815260200190815260200160002060008873ffffffffffffffffffffffffffffffffffffffff1673ffffffffffffffffffffffffffffffffffffffff168152602001908152602001600020546135f090919063ffffffff16565b60008086815260200190815260200160002060008773ffffffffffffffffffffffffffffffffffffffff1673ffffffffffffffffffffffffffffffffffffffff168152602001908152602001600020819055505b8473ffffffffffffffffffffffffffffffffffffffff168673ffffffffffffffffffffffffffffffffffffffff163373ffffffffffffffffffffffffffffffffffffffff167fc3d58168c5ae7397731d063d5bbf3d657854427343f4c083240f7aacaa2d0f628787604051808381526020018281526020019250505060405180910390a46130308573ffffffffffffffffffffffffffffffffffffffff16613678565b1561308857613087338787878787878080601f016020809104026020016040519081016040528093929190818152602001838380828437600081840152601f19601f82011690508083019250505050505050613954565b5b505050505050565b61309861251d565b61310a576040517f08c379a00000000000000000000000000000000000000000000000000000000081526004018080602001828103825260208152602001807f4f776e61626c653a2063616c6c6572206973206e6f7420746865206f776e657281525060200191505060405180910390fd5b61311381613b85565b50565b600061316787878080601f016020809104026020016040519081016040528093929190818152602001838380828437600081840152601f19601f8201169050808301925050505050505060006128b9565b90506131f681868680806020026020016040519081016040528093929190818152602001838360200280828437600081840152601f19601f82011690508083019250505050505050858580806020026020016040519081016040528093929190818152602001838360200280828437600081840152601f19601f82011690508083019250505050505050612220565b50505050505050565b813373ffffffffffffffffffffffffffffffffffffffff166004600083815260200190815260200160002060009054906101000a900473ffffffffffffffffffffffffffffffffffffffff1673ffffffffffffffffffffffffffffffffffffffff161461326b57600080fd5b61327483612a2f565b61327d57600080fd5b6000600160056000868152602001908152602001600020540190506132bf600560008681526020019081526020016000205484516135f090919063ffffffff16565b600560008681526020019081526020016000208190555060008090505b835181101561342e5760008482815181106132f357fe5b60200260200101519050600082840187179050816002600083815260200190815260200160002060006101000a81548173ffffffffffffffffffffffffffffffffffffffff021916908373ffffffffffffffffffffffffffffffffffffffff1602179055508173ffffffffffffffffffffffffffffffffffffffff16600073ffffffffffffffffffffffffffffffffffffffff163373ffffffffffffffffffffffffffffffffffffffff167fc3d58168c5ae7397731d063d5bbf3d657854427343f4c083240f7aacaa2d0f62846001604051808381526020018281526020019250505060405180910390a46133fd8273ffffffffffffffffffffffffffffffffffffffff16613678565b156134215761342033338484600160405180602001604052806000815250613954565b5b50508060010190506132dc565b5050505050565b6060600082141561347d576040518060400160405280600181526020017f3000000000000000000000000000000000000000000000000000000000000000815250905061355d565b600082905060005b600082146134a7578080600101915050600a828161349f57fe5b049150613485565b6060816040519080825280601f01601f1916602001820160405280156134dc5781602001600182028038833980820191505090505b50905060006001830390505b6000861461355557600a86816134fa57fe5b0660300160f81b8282806001900393508151811061351457fe5b60200101907effffffffffffffffffffffffffffffffffffffffffffffffffffffffffffff1916908160001a905350600a868161354d57fe5b0495506134e8565b819450505050505b919050565b606061359e8383604051806020016040528060008152506040518060200160405280600081525060405180602001604052806000815250613ccb565b905092915050565b60006135e883836040518060400160405280601e81526020017f536166654d6174683a207375627472616374696f6e206f766572666c6f770000815250613f91565b905092915050565b60008082840190508381101561366e576040517f08c379a000000000000000000000000000000000000000000000000000000000815260040180806020018281038252601b8152602001807f536166654d6174683a206164646974696f6e206f766572666c6f77000000000081525060200191505060405180910390fd5b8091505092915050565b60008060007fc5d2460186f7233c927e7db2dcc703c0e500b653ca82273b7bfad8045d85a47060001b9050833f91508082141580156136ba57506000801b8214155b92505050919050565b63bc197c8160e01b7bffffffffffffffffffffffffffffffffffffffffffffffffffffffff19168473ffffffffffffffffffffffffffffffffffffffff1663bc197c8188888787876040518663ffffffff1660e01b8152600401808673ffffffffffffffffffffffffffffffffffffffff1673ffffffffffffffffffffffffffffffffffffffff1681526020018573ffffffffffffffffffffffffffffffffffffffff1673ffffffffffffffffffffffffffffffffffffffff168152602001806020018060200180602001848103845287818151815260200191508051906020019060200280838360005b838110156137c95780820151818401526020810190506137ae565b50505050905001848103835286818151815260200191508051906020019060200280838360005b8381101561380b5780820151818401526020810190506137f0565b50505050905001848103825285818151815260200191508051906020019080838360005b8381101561384a57808201518184015260208101905061382f565b50505050905090810190601f1680156138775780820380516001836020036101000a031916815260200191505b5098505050505050505050602060405180830381600087803b15801561389c57600080fd5b505af11580156138b0573d6000803e3d6000fd5b505050506040513d60208110156138c657600080fd5b81019080805190602001909291905050507bffffffffffffffffffffffffffffffffffffffffffffffffffffffff19161461394c576040517f08c379a000000000000000000000000000000000000000000000000000000000815260040180806020018281038252603e81526020018061414c603e913960400191505060405180910390fd5b505050505050565b63f23a6e6160e01b7bffffffffffffffffffffffffffffffffffffffffffffffffffffffff19168473ffffffffffffffffffffffffffffffffffffffff1663f23a6e6188888787876040518663ffffffff1660e01b8152600401808673ffffffffffffffffffffffffffffffffffffffff1673ffffffffffffffffffffffffffffffffffffffff1681526020018573ffffffffffffffffffffffffffffffffffffffff1673ffffffffffffffffffffffffffffffffffffffff16815260200184815260200183815260200180602001828103825283818151815260200191508051906020019080838360005b83811015613a5b578082015181840152602081019050613a40565b50505050905090810190601f168015613a885780820380516001836020036101000a031916815260200191505b509650505050505050602060405180830381600087803b158015613aab57600080fd5b505af1158015613abf573d6000803e3d6000fd5b505050506040513d6020811015613ad557600080fd5b81019080805190602001909291905050507bffffffffffffffffffffffffffffffffffffffffffffffffffffffff191614613b5b576040517f08c379a000000000000000000000000000000000000000000000000000000000815260040180806020018281038252603981526020018061418a6039913960400191505060405180910390fd5b505050505050565b8060069080519060200190613b79929190614051565b5050565b600033905090565b600073ffffffffffffffffffffffffffffffffffffffff168173ffffffffffffffffffffffffffffffffffffffff161415613c0b576040517f08c379a00000000000000000000000000000000000000000000000000000000081526004018080602001828103825260268152602001806140f76026913960400191505060405180910390fd5b8073ffffffffffffffffffffffffffffffffffffffff16600760009054906101000a900473ffffffffffffffffffffffffffffffffffffffff1673ffffffffffffffffffffffffffffffffffffffff167f8be0079c531659141344cd1fd0a4f28419497f9722a3daafe3b4186f6b6457e060405160405180910390a380600760006101000a81548173ffffffffffffffffffffffffffffffffffffffff021916908373ffffffffffffffffffffffffffffffffffffffff16021790555050565b6060808690506060869050606086905060608690506060869050606081518351855187518951010101016040519080825280601f01601f191660200182016040528015613d275781602001600182028038833980820191505090505b5090506060819050600080905060008090505b8851811015613da857888181518110613d4f57fe5b602001015160f81c60f81b838380600101945081518110613d6c57fe5b60200101907effffffffffffffffffffffffffffffffffffffffffffffffffffffffffffff1916908160001a9053508080600101915050613d3a565b5060008090505b8751811015613e1d57878181518110613dc457fe5b602001015160f81c60f81b838380600101945081518110613de157fe5b60200101907effffffffffffffffffffffffffffffffffffffffffffffffffffffffffffff1916908160001a9053508080600101915050613daf565b5060008090505b8651811015613e9257868181518110613e3957fe5b602001015160f81c60f81b838380600101945081518110613e5657fe5b60200101907effffffffffffffffffffffffffffffffffffffffffffffffffffffffffffff1916908160001a9053508080600101915050613e24565b5060008090505b8551811015613f0757858181518110613eae57fe5b602001015160f81c60f81b838380600101945081518110613ecb57fe5b60200101907effffffffffffffffffffffffffffffffffffffffffffffffffffffffffffff1916908160001a9053508080600101915050613e99565b5060008090505b8451811015613f7c57848181518110613f2357fe5b602001015160f81c60f81b838380600101945081518110613f4057fe5b60200101907effffffffffffffffffffffffffffffffffffffffffffffffffffffffffffff1916908160001a9053508080600101915050613f0e565b50819850505050505050505095945050505050565b600083831115829061403e576040517f08c379a00000000000000000000000000000000000000000000000000000000081526004018080602001828103825283818151815260200191508051906020019080838360005b83811015614003578082015181840152602081019050613fe8565b50505050905090810190601f1680156140305780820380516001836020036101000a031916815260200191505b509250505060405180910390fd5b5060008385039050809150509392505050565b828054600181600116156101000203166002900490600052602060002090601f016020900481019282601f1061409257805160ff19168380011785556140c0565b828001600101855582156140c0579182015b828111156140bf5782518255916020019190600101906140a4565b5b5090506140cd91906140d1565b5090565b6140f391905b808211156140ef5760008160009055506001016140d7565b5090565b9056fe4f776e61626c653a206e6577206f776e657220697320746865207a65726f20616464726573734e656564206f70657261746f7220617070726f76616c20666f7220337264207061727479207472616e73666572732e636f6e74726163742072657475726e656420616e20756e6b6e6f776e2076616c75652066726f6d206f6e4552433131353542617463685265636569766564636f6e74726163742072657475726e656420616e20756e6b6e6f776e2076616c75652066726f6d206f6e455243313135355265636569766564a165627a7a72305820714d580c8e906f181176e72d659eb7953f84624f7c0901ea69121d4628dbdd9e0029",
  "source": "pragma solidity ^0.5.0;\r\n\r\nimport \"@openzeppelin/contracts/ownership/Ownable.sol\";\r\nimport \"./ERC1155MixedFungibleMintable.sol\";\r\nimport \"./ERC1155Metadata.sol\";\r\n\r\ncontract Festook is ERC1155MixedFungibleMintable, ERC1155Metadata, Ownable {\r\n    // Contract name\r\n    string public name;\r\n    // Contract symbol\r\n    string public symbol;\r\n\r\n    string public contractUri;\r\n\r\n    constructor(string memory _name, string memory _symbol) public {\r\n        name = _name;\r\n        symbol = _symbol;\r\n    }\r\n\r\n    function mintNonFungible(string calldata _uri, address[] calldata _to) external {\r\n        uint256 id = create(_uri, true);\r\n        mintNonFungible(id, _to);\r\n    }\r\n\r\n    function mintFungible(string calldata _uri, address[] calldata _to, uint256[] calldata _quantities) external {\r\n        uint256 id = create(_uri, false);\r\n        mintFungible(id, _to, _quantities);\r\n    }\r\n\r\n    function uri(uint256 _id) public view returns (string memory) {\r\n        return Strings.strConcat(baseMetadataURI, Strings.uint2str(_id));\r\n    }\r\n\r\n    function contractURI() public view returns (string memory) {\r\n        return contractUri;\r\n    }\r\n\r\n    /**\r\n    * @dev Will update the base URL of token's URI\r\n    * @param _newBaseMetadataURI New base URL of token's URI\r\n    */\r\n    function setBaseMetadataURI(string memory _newBaseMetadataURI)\r\n        public\r\n        onlyOwner\r\n    {\r\n        _setBaseMetadataURI(_newBaseMetadataURI);\r\n    }\r\n\r\n    function setContractURI(string memory _newContractURI)\r\n        public\r\n        onlyOwner\r\n    {\r\n        contractUri = _newContractURI;\r\n    }\r\n}\r\n",
  "sourcePath": "C:\\Users\\SergiiBomko\\Documents\\GitHub\\fook\\contracts\\Festook.sol",
  "compiler": {
    "name": "solc",
    "version": "0.5.8+commit.23d335f2.Emscripten.clang"
  },
  "schemaVersion": "3.0.11",
  "updatedAt": "2020-05-25T19:08:31.332Z",
  "devdoc": {
    "methods": {
      "isApprovedForAll(address,address)": {
        "params": {
          "_operator": "Address of authorized operator\r",
          "_owner": "The owner of the Tokens\r"
        },
        "return": "True if the operator is approved, false if not\r"
      },
      "isOwner()": {
        "details": "Returns true if the caller is the current owner."
      },
      "owner()": {
        "details": "Returns the address of the current owner."
      },
      "renounceOwnership()": {
        "details": "Leaves the contract without owner. It will not be possible to call `onlyOwner` functions anymore. Can only be called by the current owner.     * NOTE: Renouncing ownership will leave the contract without an owner, thereby removing any functionality that is only available to the owner."
      },
      "setApprovalForAll(address,bool)": {
        "details": "MUST emit the ApprovalForAll event on success.\r",
        "params": {
          "_approved": "True if the operator is approved, false to revoke approval\r",
          "_operator": "Address to add to the set of authorized operators\r"
        }
      },
      "setBaseMetadataURI(string)": {
        "details": "Will update the base URL of token's URI\r",
        "params": {
          "_newBaseMetadataURI": "New base URL of token's URI\r"
        }
      },
      "transferOwnership(address)": {
        "details": "Transfers ownership of the contract to a new account (`newOwner`). Can only be called by the current owner."
      }
    }
  },
  "userdoc": {
    "methods": {
      "isApprovedForAll(address,address)": {
        "notice": "Queries the approval status of an operator for a given owner.\r"
      },
      "setApprovalForAll(address,bool)": {
        "notice": "Enable or disable approval for a third party (\"operator\") to manage all of the caller's tokens.\r"
      }
    }
  }
}